:020000040800F2
:10000000C80600202D02000817120008531100082E
:100010001512000833030008411300080000000017
:10002000000000000000000000000000991200081D
:100030003503000800000000191200089B12000898
:10004000470200084702000847020008470200086C
:10005000470200084702000847020008470200085C
:10006000470200084702000847020008470200084C
:10007000470200084702000847020008470200083C
:10008000470200084702000847020008470200082C
:10009000470200084702000847020008470200081C
:1000A000470200084702000847020008470200080C
:1000B000470200080000000000000000470200089E
:1000C00047020008470200084702000847020008EC
:1000D00047020008470200084702000847020008DC
:1000E000470200084702000800000000000000006E
:1000F0000000000000000000000000000000000000
:10010000000000004702000800000000470200084D
:10011000000000000000000047020008470200083D
:10012000470200084702000847020008470200088B
:10013000470200080000000000000000000000006E
:1001400047020008470200084702000800000000BC
:10015000470200084702000847020008470200085B
:10016000470200084702000847020008000000009C
:100170004702000811130008000000000000000002
:1001800047020008470200084702000800F002F892
:1001900000F03CF80AA090E8000C82448344AAF1E5
:1001A0000107DA4501D100F031F8AFF2090EBAE8E3
:1001B0000F0013F0010F18BFFB1A43F0010318479B
:1001C0004012000060120000103A24BF78C878C1C5
:1001D000FAD8520724BF30C830C144BF04680C604D
:1001E000704700000023002400250026103A28BF95
:1001F00078C1FBD8520728BF30C148BF0B60704799
:100200001FB501F0D7F81FBD10B510BD00F058F8AC
:100210001146FFF7F5FF01F0A5F800F076F803B4FA
:10022000FFF7F2FF03BC00F07DF8000009488047AB
:1002300009480047FEE7FEE7FEE7FEE7FEE7FEE7C8
:10024000FEE7FEE7FEE7FEE704480549054A064BE0
:1002500070470000011300088D010008C80000204D
:10026000C8060020C8020020C80200204FF000028B
:1002700000B5134694469646203922BFA0E80C509C
:10028000A0E80C50B1F12001BFF4F7AF090728BF77
:10029000A0E80C5048BF0CC05DF804EB890028BFF3
:1002A00040F8042B08BF704748BF20F8022B11F01C
:1002B000804F18BF00F8012B704770477047704798
:1002C000754600F02BF8AE4605006946534620F00F
:1002D0000700854618B020B5FFF7B6FFBDE82040FF
:1002E0004FF000064FF000074FF000084FF0000BF2
:1002F00021F00701AC46ACE8C009ACE8C009ACE8A5
:10030000C009ACE8C0098D46704710B50446AFF38C
:1003100000802046BDE81040FFF781BF00487047CD
:100320006400002001491820ABBEFEE72600020051
:100330007047FEE77047000070B5044600F006F90C
:100340000546601C02D004480078044400F0FEF822
:10035000401BA042FAD370BD040000202DE9F04FED
:10036000DFF8AC9100230325A9F1040B85B04FF011
:10037000010C0F2709F1040AABF1040EBFE000BF26
:100380000CFA03F6324075D00C7904F00304012C0A
:1003900001D0022C1BD1846800945C0005FA04F89B
:1003A0000494009C24EA08040094D1F80C80049C76
:1003B00008FA04F8009C48EA0408C0F80880446879
:1003C000B4430E79C6F300169E40264346600C796E
:1003D000E443A4070AD0C4684FEA430805FA08F6C4
:1003E000B4438E6806FA08F62643C6600C7904F01A
:1003F0000304022C10D1DC0800EB84040294246A6C
:100400005E074FEAD66807FA08F6B4430E6906FAA3
:1004100008F62643029C266204684FEA430805FA60
:1004200008F6B4430E7906F0030606FA08F62643EA
:1004300006604C6814F4403F60D0364C266E46F09F
:1004400001062666246E23F0030604F001040094DE
:10045000314C34440294A4689E074FEA167807FA98
:1004600008F6B443B0F1904F05D02C4EB04204D101
:10047000012612E042E000260FE0294EB04201D1F1
:1004800002260AE0274EB04201D1032605E0264E9F
:10049000B04201D1042600E0072606FA08F62643FA
:1004A000029CA660D9F800604C46D1F804809643BF
:1004B0005FEAC82800D516432660DAF800405646A1
:1004C000D1F8048094435FEA882800D5144334604F
:1004D000DBF800405E46D1F8048094435FEA883838
:1004E00000D514433460DEF800407646D1F804802D
:1004F00094435FEAC83800D5144334605B1C0A6833
:1005000032FA03F47FF43CAF05B000F00FB80000FE
:1005100008040140001002400000014000040048AF
:1005200000080048000C00480010004830BCBDE83E
:10053000C08F426921EA02030A4043EA0241816115
:1005400070470AB1816170478162704701488068D5
:1005500070470000040000200248816802781144BE
:10056000816070470400002010B50024032000F0D3
:1005700071F80F2000F008F808B1012401E000F044
:1005800025F8204610BD000070B50E4E054600242B
:10059000307898B14FF47A71B1FBF0F00A490968EC
:1005A000B1FBF0F000F048FC40B9102D06D200225B
:1005B0002946501E00F02EF8756000E00124204608
:1005C00070BD00000400002010000020094808B59C
:1005D000016E41F001010166016E01F0010100911F
:1005E000816D41F080518165806D00F080500090F8
:1005F00008BD000000100240002809DB00F01F02C7
:10060000012191404009800000F1E020C0F8001174
:1006100070470000F0B40E4B1B680C46C3F3022376
:10062000C3F10705042D00D90425191D072901D29E
:10063000002300E0DB1E012606FA05F1491E2140D9
:1006400099409E40761E16403143F0BC00F079BEC2
:100650000CED00E0064900F0070208684FF6FF03C2
:10066000184040EA0220034A104308607047000027
:100670000CED00E00000FA051649B0F5007F0868AF
:10068000C0F3412009D0022805D0086820F4C060DA
:1006900040F480600860002070470128FBD00868A3
:1006A00020F4C06040F4007008600B4832220068FB
:1006B00050430A4AB0FBF2F0401C00E0401E4A6979
:1006C000520501D50028F9D148694005E3D503203A
:1006D00070470000007000401000002040420F00F2
:1006E0000248006800F4C0607047000000700040DD
:1006F0002DE9F0470F4605006BD0494E306800F0F9
:100700000700B84209D2306820F007003843306053
:10071000306800F00700B8425BD12878414C800770
:100720000AD5A868A16801F0F001884204D9A1683F
:1007300021F0F0010143A1602878C0072CD068683F
:10074000032811D0022812D0216898B14905002948
:100750003FDAA16821F003010143A160FFF7F6FE33
:10076000804641F2883910E021688901EFE721686D
:100770008903ECE78907EAE7FFF7E8FEA0EB080149
:10078000494502D90320BDE8F087A068696800F0F8
:100790000C00B0EB810FEFD1287880070AD5A8684C
:1007A000A16801F0F001884204D2A16821F0F001B3
:1007B0000143A160306800F00700B8420BD93068EF
:1007C00020F0070038433060306800F00700B8427E
:1007D00001D00120D7E72878400705D5A068E9684F
:1007E00020F4E0600843A0602878000706D5A068E0
:1007F000296920F4605040EAC100A06000F01AF8B6
:10080000A168094AC1F30311515C01F01F01C840FE
:100810000649086006480068BDE8F047FFF7B4BE27
:100820000020024000100240C01300081000002009
:100830000800002070B52549002318468A68CC6856
:1008400012F00C0204F00306214C4FEA640509D0B3
:100850000C2A05D0042A32D0082A00D1284670BDBF
:10086000012E10D10B681B0704D4D1F89430C3F3C8
:10087000032302E00B68C3F30313164E56F823302C
:10088000DAB10C2AEBD1C86800F00300022818D0B6
:10089000032818D01846CA68CB68C2F30212C3F303
:1008A00006234343521CB3FBF2F2C868C0F3416015
:1008B000401C4000B2FBF0F070BD184670BD2046F1
:1008C00070BD2046E7E72846E5E70000001002403B
:1008D0000024F400D01300082DE9F84304006FD081
:1008E000FA4DA86800F00C06E86800F003072078CD
:1008F000C00664D576B10C2E01D1012F0AD0A069B3
:10090000002828687AD040F001002860FFF71EFE1A
:1009100080465DE02868800702D5A0690028DED007
:10092000216A2868000703D5286800F0F00004E079
:10093000D5F89400F02202EA1010814216D9084638
:1009400000F06CFC00283BD1286840F008002860CB
:100950002868216A20F0F000084328606868E1698F
:1009600020F47F4040EA0120686016E0286840F0EB
:10097000080028602868216A20F0F00008432860F9
:100980006868E16920F47F4040EA0120686026B988
:10099000206A00F043FC0028D5D1FFF74BFFA9687F
:1009A000CB4AC1F30311515C01F01F01C840C94992
:1009B0000860C9480068FFF7E7FD00287ED12EE0F7
:1009C000CAE000BFFFF7C2FDA0EB0800022876D8FE
:1009D00028688007F6D5286840F008002860286855
:1009E000216A20F0F000084328606868E16920F47B
:1009F0007F4040EA0120686011E0FFE720F001003D
:100A00002860FFF7A3FD804606E000BFFFF79EFDCC
:100A1000A0EB08000228DAD828688007F6D42078EE
:100A2000C00740D0082E18D00C2E01D1032F14D0AF
:100A30006068B0F5803F17D0B0F5A02F286817D0B8
:100A400020F480302860286820F4802028606068C6
:100A5000E0B1FFF77BFD804614E02868800322D5D3
:100A60006068002878D01EE0286840F48030EDE708
:100A700040F480202860F7E7FFF768FDA0EB08004E
:100A80006428A4D828688003F6D50CE0FFF75EFD43
:100A9000804605E0FFF75AFDA0EB0800642896D8D1
:100AA00028688003F6D4207880073BD5042E11D027
:100AB0000C2E01D1022F0DD0E06801E0AAE1FFE089
:100AC000002828681ED040F480702860FFF73EFDA3
:100AD00007460CE0286840050CD5E0680028C1D026
:100AE00008E000BFFFF732FDC01B022893D828683A
:100AF0004005F7D56868217C20F0F85040EA016095
:100B000068600FE020F480702860FFF71FFD074643
:100B100005E000BFFFF71AFDC01B0228B1D8286806
:100B20004005F7D42078000729D560690028D5F85A
:100B3000940012D040F00100C5F89400FFF706FDC4
:100B4000074604E0FFF702FDC01B022899D8D5F83C
:100B500094008007F6D512E02BE120F00100C5F8E3
:100B60009400FFF7F3FC074605E000BFFFF7EEFC3B
:100B7000C01B022885D8D5F894008007F6D42078C9
:100B8000400766D5A86D0027C00008D4A86D40F0C6
:100B90008050A865A86D012700F0805000904F4854
:100BA0000168C90512D40168814641F48071016071
:100BB000FFF7CCFC804605E0FFF7C8FCA0EB08007F
:100BC00002287DD8D9F80000C005F5D5A068012815
:100BD00016D00528D5F8900017D020F00100C5F8F0
:100BE0009000D5F8900020F0040000BFC5F89000F8
:100BF000A06841F28839C0B1FFF7A8FC80460FE039
:100C0000D5F8900040F00100F0E740F00400C5F88E
:100C10009000F5E7FFF79AFCA0EB080149454FD893
:100C2000D5F890008007F5D50EE0FFF78FFC8046E1
:100C300006E000BFFFF78AFCA0EB080149453FD85A
:100C4000D5F890008007F5D41FB1A86D20F0805032
:100C5000A8652078800628D5606A0028D5F8980015
:100C600012D040F00100C5F89800FFF76FFC07466E
:100C700005E000BFFFF76AFCC01B022820D8D5F8AA
:100C800098008007F6D510E020F00100C5F8980024
:100C9000FFF75CFC074604E0FFF758FCC01B022886
:100CA0000ED8D5F898008007F6D4A06AF0B30228D1
:100CB00016D00C2E7DD0286820F08070286000E0CF
:100CC000A7E0FFF743FC0446A6E000000010024046
:100CD000C013000810000020080000200070004031
:100CE000E868E26A00F00301914228D1216B00F02C
:100CF000700209011039914221D1626B00F4FE416A
:100D0000B1EB022F1BD194F8382000F07841B1EB01
:100D1000C26F14D1A18F00F4C00249084905A1F5A2
:100D2000001191420BD194F8401000E06AE04908AC
:100D3000490600F0C060A1F1007181424BD00C2E39
:100D400073D02868400170D4286820F08070286033
:100D5000FFF7FCFB064604E0FFF7F8FB801B0228C8
:100D600057D828688001F7D4F4E90B016FF00F021F
:100D700002EB01110843218A5204490802EB415158
:100D8000A26841EA02210843217D4FF07E424908D2
:100D900002EB41610843217B40EAC160E968244AD3
:100DA00011400843E860286840F080702860E868D7
:100DB00000E03AE040F08070E860FFF7C7FB0446CF
:100DC00005E000BFFFF7C2FB001B022821D82868FE
:100DD0008001F7D527E02868800124D4286840F0F6
:100DE00080702860E86840F08070E860FFF7AEFB34
:100DF000044604E0FFF7AAFB001B022809D8286874
:100E00008001F7D50FE000BFFFF7A0FB001B022811
:100E100002D90320BDE8F88328688001F4D4E8688B
:100E200004490840E8600020F4E70120F2E70000F0
:100E30008C809D01FCFFEEFE10B5401EB0F1807F5E
:100E400001D3012010BD4FF0E02460610F21601735
:100E500000F077FA0020A06107202061002010BD7B
:100E600010B5184C02212046FFF763FB01211648FC
:100E700000F06DF8154842F210710068B0FBF1F116
:100E800000E0491E0029FCD10F4800F024F8012899
:100E900010D100210C4800F02BF80D4908600868BB
:100EA000B0F5166F01D2012200E000220121204698
:100EB000FFF747FB044800F017F9002801D072B68D
:100EC000FEE710BD000400481400002010000020C0
:100ED000000000207047006801F00F02012110326D
:100EE000006B9140814301D0002070470120704782
:100EF0000068342202EB81014058704710B5044667
:100F000090F83D00012820D0012084F83D002068A1
:100F1000026822F002020260D1E9000210438A68EE
:100F200010432268C0431061D1E9000210432268D7
:100F30009062226888681062086800F0EFF9216802
:100F40000863002084F83D0010BD022010BD90F819
:100F50003D20012A0ED0012280F83D2001290168A0
:100F60000A6809D042F010020A60002180F83D10A2
:100F7000084670470220704722F01002F4E710B5CF
:100F80000268D168C943CB074FF0010100D19160DD
:100F90000268D368DB439B0707D4022191600321D9
:100FA00080F83C10FFF796FF10BD80F83C10FFF76B
:100FB00057FF10BD70B5040003D094F83C0010B189
:100FC00007E0012070BD002084F83D00204600F0BD
:100FD00043F8022084F83C00206801250560D4E92C
:100FE00001010843228A616941EA42410843A1693B
:100FF0000843E1690843616A0843A16A084321681C
:101000000A6810430860207B012804D12068016829
:1010100041F480310160D4E90C010843A16B08431D
:101020002168C0430861D4E90C0108432168886243
:101030002168A06B0862206B00F070F921680863DA
:101040002068416821F00301416021680320886025
:1010500084F83C50002070BD70B586B00446142161
:101060006846FFF703F91D492068884233D11C48C0
:10107000816C41F480318164816C01F4803105918F
:10108000C16C41F00201C164C06C002400F0020098
:1010900005904FF4405000900220CDE90104114E1C
:1010A000092569463046CDE90345FFF757F94FF466
:1010B000804000901220CDE9010469463046CDE918
:1010C0000345FFF74BF9002211464D20FFF7A2FA26
:1010D0004D20FFF791FA06B070BD000000400240BD
:1010E000001002400004004890F83D10012928D06B
:1010F000012180F83D10022180F83C1001684A6807
:1011000042F001024A6090F82C10012901684A68F7
:1011100019D022F002024A60026803219160016A3C
:10112000002901680A6811D042F010020A600168C3
:101130000A6842F002020A60002180F83D10084669
:1011400070470220704742F00202E4E722F01002EA
:10115000ECE7FEE770B586B014216846FFF786F825
:101160001648C16C41F00201C164C16C01F002017A
:101170000591C16C41F00101C164C06C104E00F0DA
:1011800001000590002202213046FFF7DAF901251F
:101190004FF4881000240095CDE9010469463046DB
:1011A000FFF7DCF802200090CDE901546946304693
:1011B0000394FFF7D3F806B070BD000000100240A2
:1011C00000040048124810B5104901604FF08051EA
:1011D000416009118160002101730122C0E90421ED
:1011E00052038261A022C0E907214162816280F836
:1011F0002C100322C0E90C2104218163FFF7DAFEE1
:10120000002801D072B6FEE710BD00000040024089
:1012100014000020FEE7FEE770470000F8B51C4D03
:1012200006460024A86DC00002D5FFF759FA0DE06C
:10123000A86D40F08050A865A86D00F08050009027
:10124000FFF74EFAA96D21F08051A965B0F5007F36
:1012500004D0802E07D94FF003040AE0802E08D96D
:10126000A02E01D804E001D1022402E0702E00D1AA
:1012700001240848016821F007012143016000684A
:1012800000F00700A04201D00120F8BD0020F8BD09
:1012900000100240002002407047FFF75DB910B512
:1012A00096B044216846FEF7E1FF142111A8FEF72D
:1012B000DDFF4FF40070FFF7DFF908B172B6FEE70B
:1012C0001020009000240120CDE906046020089041
:1012D0000A946846FFF700FB08B172B6FEE70F20DC
:1012E000CDE9110413941494002111A81594FFF76B
:1012F000FFF9002801D072B6FEE716B010BD00005D
:101300000248016841F470010160704788ED00E017
:101310000148FFF734BE00001400002070B50346FA
:1013200000200F24014601258E0004FA06F21A421D
:1013300002D005FA01F21043491C0729F4D370BD0D
:10134000FEE70907090E002804DB00F1E02080F821
:101350000014704700F00F0000F1E02080F8141D29
:1013600070470000FFF700F9FFF799FFFFF7F2FE63
:10137000FFF728FF0E480121016003218160002151
:10138000416001464438FFF7B9FD08B172B6FEE787
:10139000074801214438FFF7DAFD0120FEF7CCFFB2
:1013A00003484438FFF7A0FE08B172B6FEE7FEE737
:1013B000580000204FF04070E1EE100A7047000026
:1013C00000000000000000000102030406070809F5
:1013D000A0860100400D0300801A060000350C00B5
:1013E00040420F0080841E0000093D0000127A0078
:1013F0000024F40000366E010048E801006CDC02B5
:10140000201400080000002014000000C80100089B
:101410003414000814000020B4060000E4010008A1
:1014200000000000010000001000000000000000AB
:0414300000093D0072
:040000050800018D61
:00000001FF
